{
  "contractName": "oceanCoin",
  "abi": [
    {
      "inputs": [],
      "stateMutability": "nonpayable",
      "type": "constructor"
    },
    {
      "anonymous": false,
      "inputs": [
        {
          "indexed": true,
          "internalType": "address",
          "name": "owner",
          "type": "address"
        },
        {
          "indexed": true,
          "internalType": "address",
          "name": "spender",
          "type": "address"
        },
        {
          "indexed": false,
          "internalType": "uint256",
          "name": "value",
          "type": "uint256"
        }
      ],
      "name": "Approval",
      "type": "event"
    },
    {
      "anonymous": false,
      "inputs": [
        {
          "indexed": true,
          "internalType": "address",
          "name": "from",
          "type": "address"
        },
        {
          "indexed": false,
          "internalType": "uint256",
          "name": "value",
          "type": "uint256"
        }
      ],
      "name": "Burn",
      "type": "event"
    },
    {
      "anonymous": false,
      "inputs": [
        {
          "indexed": true,
          "internalType": "address",
          "name": "bidder",
          "type": "address"
        },
        {
          "indexed": false,
          "internalType": "uint256",
          "name": "value",
          "type": "uint256"
        }
      ],
      "name": "NewBid",
      "type": "event"
    },
    {
      "anonymous": false,
      "inputs": [
        {
          "indexed": true,
          "internalType": "address",
          "name": "from",
          "type": "address"
        },
        {
          "indexed": true,
          "internalType": "address",
          "name": "to",
          "type": "address"
        },
        {
          "indexed": false,
          "internalType": "uint256",
          "name": "value",
          "type": "uint256"
        }
      ],
      "name": "Transfer",
      "type": "event"
    },
    {
      "stateMutability": "nonpayable",
      "type": "fallback"
    },
    {
      "inputs": [
        {
          "internalType": "address",
          "name": "",
          "type": "address"
        },
        {
          "internalType": "address",
          "name": "",
          "type": "address"
        }
      ],
      "name": "allowed",
      "outputs": [
        {
          "internalType": "uint256",
          "name": "",
          "type": "uint256"
        }
      ],
      "stateMutability": "view",
      "type": "function"
    },
    {
      "inputs": [],
      "name": "auctionCount",
      "outputs": [
        {
          "internalType": "uint256",
          "name": "",
          "type": "uint256"
        }
      ],
      "stateMutability": "view",
      "type": "function"
    },
    {
      "inputs": [
        {
          "internalType": "uint256",
          "name": "",
          "type": "uint256"
        }
      ],
      "name": "auctions",
      "outputs": [
        {
          "internalType": "uint256",
          "name": "bestBid",
          "type": "uint256"
        },
        {
          "internalType": "address",
          "name": "highestBidder",
          "type": "address"
        },
        {
          "internalType": "uint256",
          "name": "expiration",
          "type": "uint256"
        },
        {
          "internalType": "bool",
          "name": "status",
          "type": "bool"
        }
      ],
      "stateMutability": "view",
      "type": "function"
    },
    {
      "inputs": [
        {
          "internalType": "address",
          "name": "",
          "type": "address"
        }
      ],
      "name": "balances",
      "outputs": [
        {
          "internalType": "uint256",
          "name": "",
          "type": "uint256"
        }
      ],
      "stateMutability": "view",
      "type": "function"
    },
    {
      "inputs": [],
      "name": "burnAddr",
      "outputs": [
        {
          "internalType": "address",
          "name": "",
          "type": "address"
        }
      ],
      "stateMutability": "view",
      "type": "function"
    },
    {
      "inputs": [],
      "name": "name",
      "outputs": [
        {
          "internalType": "string",
          "name": "",
          "type": "string"
        }
      ],
      "stateMutability": "view",
      "type": "function"
    },
    {
      "inputs": [
        {
          "internalType": "address",
          "name": "",
          "type": "address"
        }
      ],
      "name": "orgDetails",
      "outputs": [
        {
          "internalType": "string",
          "name": "name",
          "type": "string"
        },
        {
          "internalType": "string",
          "name": "location",
          "type": "string"
        },
        {
          "internalType": "string",
          "name": "email",
          "type": "string"
        }
      ],
      "stateMutability": "view",
      "type": "function"
    },
    {
      "inputs": [
        {
          "internalType": "uint256",
          "name": "",
          "type": "uint256"
        }
      ],
      "name": "organisations",
      "outputs": [
        {
          "internalType": "address",
          "name": "",
          "type": "address"
        }
      ],
      "stateMutability": "view",
      "type": "function"
    },
    {
      "inputs": [],
      "name": "owner",
      "outputs": [
        {
          "internalType": "address",
          "name": "",
          "type": "address"
        }
      ],
      "stateMutability": "view",
      "type": "function"
    },
    {
      "inputs": [],
      "name": "symbol",
      "outputs": [
        {
          "internalType": "string",
          "name": "",
          "type": "string"
        }
      ],
      "stateMutability": "view",
      "type": "function"
    },
    {
      "inputs": [],
      "name": "totalSupply",
      "outputs": [
        {
          "internalType": "uint256",
          "name": "",
          "type": "uint256"
        }
      ],
      "stateMutability": "view",
      "type": "function"
    },
    {
      "inputs": [
        {
          "internalType": "address",
          "name": "",
          "type": "address"
        }
      ],
      "name": "volDetails",
      "outputs": [
        {
          "internalType": "string",
          "name": "name",
          "type": "string"
        },
        {
          "internalType": "string",
          "name": "location",
          "type": "string"
        },
        {
          "internalType": "string",
          "name": "email",
          "type": "string"
        }
      ],
      "stateMutability": "view",
      "type": "function"
    },
    {
      "inputs": [
        {
          "internalType": "uint256",
          "name": "",
          "type": "uint256"
        }
      ],
      "name": "volunteers",
      "outputs": [
        {
          "internalType": "address",
          "name": "",
          "type": "address"
        }
      ],
      "stateMutability": "view",
      "type": "function"
    },
    {
      "inputs": [
        {
          "internalType": "address",
          "name": "to",
          "type": "address"
        },
        {
          "internalType": "uint256",
          "name": "value",
          "type": "uint256"
        }
      ],
      "name": "transfer",
      "outputs": [
        {
          "internalType": "bool",
          "name": "success",
          "type": "bool"
        }
      ],
      "stateMutability": "nonpayable",
      "type": "function"
    },
    {
      "inputs": [
        {
          "internalType": "address",
          "name": "from",
          "type": "address"
        },
        {
          "internalType": "address",
          "name": "to",
          "type": "address"
        },
        {
          "internalType": "uint256",
          "name": "value",
          "type": "uint256"
        }
      ],
      "name": "transferFrom",
      "outputs": [
        {
          "internalType": "bool",
          "name": "success",
          "type": "bool"
        }
      ],
      "stateMutability": "nonpayable",
      "type": "function"
    },
    {
      "inputs": [
        {
          "internalType": "uint256",
          "name": "value",
          "type": "uint256"
        }
      ],
      "name": "burn",
      "outputs": [
        {
          "internalType": "bool",
          "name": "success",
          "type": "bool"
        }
      ],
      "stateMutability": "nonpayable",
      "type": "function"
    },
    {
      "inputs": [
        {
          "internalType": "address",
          "name": "spender",
          "type": "address"
        },
        {
          "internalType": "uint256",
          "name": "value",
          "type": "uint256"
        }
      ],
      "name": "approve",
      "outputs": [
        {
          "internalType": "bool",
          "name": "success",
          "type": "bool"
        }
      ],
      "stateMutability": "nonpayable",
      "type": "function"
    },
    {
      "inputs": [
        {
          "internalType": "address",
          "name": "addr",
          "type": "address"
        },
        {
          "internalType": "string",
          "name": "orgName",
          "type": "string"
        },
        {
          "internalType": "string",
          "name": "location",
          "type": "string"
        },
        {
          "internalType": "string",
          "name": "email",
          "type": "string"
        }
      ],
      "name": "addOrganisation",
      "outputs": [],
      "stateMutability": "nonpayable",
      "type": "function"
    },
    {
      "inputs": [
        {
          "internalType": "address",
          "name": "addr",
          "type": "address"
        },
        {
          "internalType": "string",
          "name": "name",
          "type": "string"
        }
      ],
      "name": "addVolunteer",
      "outputs": [],
      "stateMutability": "nonpayable",
      "type": "function"
    },
    {
      "inputs": [
        {
          "internalType": "uint256",
          "name": "duration",
          "type": "uint256"
        }
      ],
      "name": "startAuction",
      "outputs": [],
      "stateMutability": "nonpayable",
      "type": "function"
    },
    {
      "inputs": [
        {
          "internalType": "uint256",
          "name": "auctionId",
          "type": "uint256"
        },
        {
          "internalType": "uint256",
          "name": "value",
          "type": "uint256"
        }
      ],
      "name": "bid",
      "outputs": [
        {
          "internalType": "uint256",
          "name": "best",
          "type": "uint256"
        }
      ],
      "stateMutability": "nonpayable",
      "type": "function"
    },
    {
      "inputs": [
        {
          "internalType": "uint256",
          "name": "auctionId",
          "type": "uint256"
        }
      ],
      "name": "endAuction",
      "outputs": [],
      "stateMutability": "nonpayable",
      "type": "function"
    }
  ],
  "bytecode": "0x608060405261dead600360006101000a81548173ffffffffffffffffffffffffffffffffffffffff021916908373ffffffffffffffffffffffffffffffffffffffff1602179055503480156200005457600080fd5b5060646002819055506064600460003373ffffffffffffffffffffffffffffffffffffffff1673ffffffffffffffffffffffffffffffffffffffff168152602001908152602001600020819055506040518060400160405280600a81526020017f4f6365616e20436f696e0000000000000000000000000000000000000000000081525060009080519060200190620000ef9291906200018d565b506040518060400160405280600381526020017f4f434e0000000000000000000000000000000000000000000000000000000000815250600190805190602001906200013d9291906200018d565b5033600660006101000a81548173ffffffffffffffffffffffffffffffffffffffff021916908373ffffffffffffffffffffffffffffffffffffffff1602179055506000600c81905550620002a2565b8280546200019b906200023d565b90600052602060002090601f016020900481019282620001bf57600085556200020b565b82601f10620001da57805160ff19168380011785556200020b565b828001600101855582156200020b579182015b828111156200020a578251825591602001919060010190620001ed565b5b5090506200021a91906200021e565b5090565b5b80821115620002395760008160009055506001016200021f565b5090565b600060028204905060018216806200025657607f821691505b602082108114156200026d576200026c62000273565b5b50919050565b7f4e487b7100000000000000000000000000000000000000000000000000000000600052602260045260246000fd5b6120a580620002b26000396000f3fe608060405234801561001057600080fd5b50600436106101465760003560e01c806342966c68116100b85780638da5cb5b1161007c5780638da5cb5b146103df57806395d89b41146103fd578063a9059cbb1461041b578063b9a2de3a1461044b578063d246d41114610467578063efdffbcc1461048557610147565b806342966c6814610300578063571a26a014610330578063598647f8146103635780635c658165146103935780637f3436ef146103c357610147565b806321e477a61161010a57806321e477a6146101f057806323b872dd14610222578063246f8c441461025257806327e235e3146102825780632ad71573146102b25780633dbf8cc5146102d057610147565b8063065de74c1461014c57806306fdde0314610168578063095ea7b31461018657806318160ddd146101b65780631ffe69a5146101d457610147565b5b600080fd5b61016660048036038101906101619190611ba2565b6104b7565b005b6101706105a1565b60405161017d9190611ca3565b60405180910390f35b6101a0600480360381019061019b9190611b66565b61062f565b6040516101ad9190611c88565b60405180910390f35b6101be610721565b6040516101cb9190611d11565b60405180910390f35b6101ee60048036038101906101e99190611a67565b610727565b005b61020a600480360381019061020591906119b3565b61090f565b60405161021993929190611cc5565b60405180910390f35b61023c60048036038101906102379190611a18565b610ad1565b6040516102499190611c88565b60405180910390f35b61026c60048036038101906102679190611ba2565b610d68565b6040516102799190611c6d565b60405180910390f35b61029c600480360381019061029791906119b3565b610da7565b6040516102a99190611d11565b60405180910390f35b6102ba610dbf565b6040516102c79190611d11565b60405180910390f35b6102ea60048036038101906102e59190611ba2565b610dc5565b6040516102f79190611c6d565b60405180910390f35b61031a60048036038101906103159190611ba2565b610e04565b6040516103279190611c88565b60405180910390f35b61034a60048036038101906103459190611ba2565b610f89565b60405161035a9493929190611d2c565b60405180910390f35b61037d60048036038101906103789190611bcb565b610fe6565b60405161038a9190611d11565b60405180910390f35b6103ad60048036038101906103a891906119dc565b611216565b6040516103ba9190611d11565b60405180910390f35b6103dd60048036038101906103d89190611abb565b61123b565b005b6103e7611403565b6040516103f49190611c6d565b60405180910390f35b610405611429565b6040516104129190611ca3565b60405180910390f35b61043560048036038101906104309190611b66565b6114b7565b6040516104429190611c88565b60405180910390f35b61046560048036038101906104609190611ba2565b611632565b005b61046f611696565b60405161047c9190611c6d565b60405180910390f35b61049f600480360381019061049a91906119b3565b6116bc565b6040516104ae93929190611cc5565b60405180910390f35b6000600b6000600c54815260200190815260200160002060010160006101000a81548173ffffffffffffffffffffffffffffffffffffffff021916908373ffffffffffffffffffffffffffffffffffffffff1602179055506000600b6000600c5481526020019081526020016000206000018190555080436105399190611de3565b600b6000600c548152602001908152602001600020600201819055506001600b6000600c54815260200190815260200160002060030160006101000a81548160ff021916908315150217905550600c600081548092919061059990611f5a565b919050555050565b600080546105ae90611ef7565b80601f01602080910402602001604051908101604052809291908181526020018280546105da90611ef7565b80156106275780601f106105fc57610100808354040283529160200191610627565b820191906000526020600020905b81548152906001019060200180831161060a57829003601f168201915b505050505081565b600081600560003373ffffffffffffffffffffffffffffffffffffffff1673ffffffffffffffffffffffffffffffffffffffff16815260200190815260200160002060008573ffffffffffffffffffffffffffffffffffffffff1673ffffffffffffffffffffffffffffffffffffffff168152602001908152602001600020819055508273ffffffffffffffffffffffffffffffffffffffff163373ffffffffffffffffffffffffffffffffffffffff167f8c5be1e5ebec7d5bd14f71427d1e84f3dd0314c0f7b2291e5b200ac8c7c3b9258460405161070f9190611d11565b60405180910390a36001905092915050565b60025481565b60003373ffffffffffffffffffffffffffffffffffffffff16600660009054906101000a900473ffffffffffffffffffffffffffffffffffffffff1673ffffffffffffffffffffffffffffffffffffffff16141561078457600190505b60005b600780549050811015610848573373ffffffffffffffffffffffffffffffffffffffff16600782815481106107e5577f4e487b7100000000000000000000000000000000000000000000000000000000600052603260045260246000fd5b9060005260206000200160009054906101000a900473ffffffffffffffffffffffffffffffffffffffff1673ffffffffffffffffffffffffffffffffffffffff1614156108355760019150610848565b808061084090611f5a565b915050610787565b50801561090a576009839080600181540180825580915050600190039060005260206000200160009091909190916101000a81548173ffffffffffffffffffffffffffffffffffffffff021916908373ffffffffffffffffffffffffffffffffffffffff16021790555081600a60008573ffffffffffffffffffffffffffffffffffffffff1673ffffffffffffffffffffffffffffffffffffffff168152602001908152602001600020600001908051906020019061090892919061187e565b505b505050565b600a60205280600052604060002060009150905080600001805461093290611ef7565b80601f016020809104026020016040519081016040528092919081815260200182805461095e90611ef7565b80156109ab5780601f10610980576101008083540402835291602001916109ab565b820191906000526020600020905b81548152906001019060200180831161098e57829003601f168201915b5050505050908060010180546109c090611ef7565b80601f01602080910402602001604051908101604052809291908181526020018280546109ec90611ef7565b8015610a395780601f10610a0e57610100808354040283529160200191610a39565b820191906000526020600020905b815481529060010190602001808311610a1c57829003601f168201915b505050505090806002018054610a4e90611ef7565b80601f0160208091040260200160405190810160405280929190818152602001828054610a7a90611ef7565b8015610ac75780601f10610a9c57610100808354040283529160200191610ac7565b820191906000526020600020905b815481529060010190602001808311610aaa57829003601f168201915b5050505050905083565b600081600460008673ffffffffffffffffffffffffffffffffffffffff1673ffffffffffffffffffffffffffffffffffffffff1681526020019081526020016000205410158015610b9e575081600560008673ffffffffffffffffffffffffffffffffffffffff1673ffffffffffffffffffffffffffffffffffffffff16815260200190815260200160002060003373ffffffffffffffffffffffffffffffffffffffff1673ffffffffffffffffffffffffffffffffffffffff1681526020019081526020016000205410155b8015610baa5750600082115b15610d5c5781600460008573ffffffffffffffffffffffffffffffffffffffff1673ffffffffffffffffffffffffffffffffffffffff1681526020019081526020016000206000828254610bfe9190611de3565b9250508190555081600460008673ffffffffffffffffffffffffffffffffffffffff1673ffffffffffffffffffffffffffffffffffffffff1681526020019081526020016000206000828254610c549190611e39565b9250508190555081600560008673ffffffffffffffffffffffffffffffffffffffff1673ffffffffffffffffffffffffffffffffffffffff16815260200190815260200160002060003373ffffffffffffffffffffffffffffffffffffffff1673ffffffffffffffffffffffffffffffffffffffff1681526020019081526020016000206000828254610ce79190611e39565b925050819055508273ffffffffffffffffffffffffffffffffffffffff168473ffffffffffffffffffffffffffffffffffffffff167fddf252ad1be2c89b69c2b068fc378daa952ba7f163c4a11628f55a4df523b3ef84604051610d4b9190611d11565b60405180910390a360019050610d61565b600090505b9392505050565b60078181548110610d7857600080fd5b906000526020600020016000915054906101000a900473ffffffffffffffffffffffffffffffffffffffff1681565b60046020528060005260406000206000915090505481565b600c5481565b60098181548110610dd557600080fd5b906000526020600020016000915054906101000a900473ffffffffffffffffffffffffffffffffffffffff1681565b600081600460003373ffffffffffffffffffffffffffffffffffffffff1673ffffffffffffffffffffffffffffffffffffffff1681526020019081526020016000205410158015610e555750600082115b15610f7f5781600460003373ffffffffffffffffffffffffffffffffffffffff1673ffffffffffffffffffffffffffffffffffffffff1681526020019081526020016000206000828254610ea99190611e39565b925050819055508160046000600360009054906101000a900473ffffffffffffffffffffffffffffffffffffffff1673ffffffffffffffffffffffffffffffffffffffff1673ffffffffffffffffffffffffffffffffffffffff1681526020019081526020016000206000828254610f219190611de3565b925050819055503373ffffffffffffffffffffffffffffffffffffffff167fcc16f5dbb4873280815c1ee09dbd06736cffcc184412cf7a71a0fdb75d397ca583604051610f6e9190611d11565b60405180910390a260019050610f84565b600090505b919050565b600b6020528060005260406000206000915090508060000154908060010160009054906101000a900473ffffffffffffffffffffffffffffffffffffffff16908060020154908060030160009054906101000a900460ff16905084565b6000600c54831115610ff757600080fd5b60011515600b600085815260200190815260200160002060030160009054906101000a900460ff1615151461102b57600080fd5b81600460003373ffffffffffffffffffffffffffffffffffffffff1673ffffffffffffffffffffffffffffffffffffffff168152602001908152602001600020541015801561107a5750600082115b61108357600080fd5b600b60008481526020019081526020016000206000015482116110a557600080fd5b81600460003373ffffffffffffffffffffffffffffffffffffffff1673ffffffffffffffffffffffffffffffffffffffff16815260200190815260200160002060008282546110f49190611e39565b92505081905550600b60008481526020019081526020016000206000015460046000600b600087815260200190815260200160002060010160009054906101000a900473ffffffffffffffffffffffffffffffffffffffff1673ffffffffffffffffffffffffffffffffffffffff1673ffffffffffffffffffffffffffffffffffffffff16815260200190815260200160002060008282546111969190611de3565b9250508190555033600b600085815260200190815260200160002060010160006101000a81548173ffffffffffffffffffffffffffffffffffffffff021916908373ffffffffffffffffffffffffffffffffffffffff16021790555081600b60008581526020019081526020016000206000018190555081905092915050565b6005602052816000526040600020602052806000526040600020600091509150505481565b600660009054906101000a900473ffffffffffffffffffffffffffffffffffffffff1673ffffffffffffffffffffffffffffffffffffffff163373ffffffffffffffffffffffffffffffffffffffff161461129557600080fd5b6007849080600181540180825580915050600190039060005260206000200160009091909190916101000a81548173ffffffffffffffffffffffffffffffffffffffff021916908373ffffffffffffffffffffffffffffffffffffffff16021790555082600860008673ffffffffffffffffffffffffffffffffffffffff1673ffffffffffffffffffffffffffffffffffffffff168152602001908152602001600020600001908051906020019061134e92919061187e565b5081600860008673ffffffffffffffffffffffffffffffffffffffff1673ffffffffffffffffffffffffffffffffffffffff16815260200190815260200160002060010190805190602001906113a592919061187e565b5080600860008673ffffffffffffffffffffffffffffffffffffffff1673ffffffffffffffffffffffffffffffffffffffff16815260200190815260200160002060020190805190602001906113fc92919061187e565b5050505050565b600660009054906101000a900473ffffffffffffffffffffffffffffffffffffffff1681565b6001805461143690611ef7565b80601f016020809104026020016040519081016040528092919081815260200182805461146290611ef7565b80156114af5780601f10611484576101008083540402835291602001916114af565b820191906000526020600020905b81548152906001019060200180831161149257829003601f168201915b505050505081565b600081600460003373ffffffffffffffffffffffffffffffffffffffff1673ffffffffffffffffffffffffffffffffffffffff16815260200190815260200160002054101580156115085750600082115b156116275781600460003373ffffffffffffffffffffffffffffffffffffffff1673ffffffffffffffffffffffffffffffffffffffff168152602001908152602001600020600082825461155c9190611e39565b9250508190555081600460008573ffffffffffffffffffffffffffffffffffffffff1673ffffffffffffffffffffffffffffffffffffffff16815260200190815260200160002060008282546115b29190611de3565b925050819055508273ffffffffffffffffffffffffffffffffffffffff163373ffffffffffffffffffffffffffffffffffffffff167fddf252ad1be2c89b69c2b068fc378daa952ba7f163c4a11628f55a4df523b3ef846040516116169190611d11565b60405180910390a36001905061162c565b600090505b92915050565b600c5481111561164157600080fd5b43600b600083815260200190815260200160002060020154111561166457600080fd5b6000600b600083815260200190815260200160002060030160006101000a81548160ff02191690831515021790555050565b600360009054906101000a900473ffffffffffffffffffffffffffffffffffffffff1681565b60086020528060005260406000206000915090508060000180546116df90611ef7565b80601f016020809104026020016040519081016040528092919081815260200182805461170b90611ef7565b80156117585780601f1061172d57610100808354040283529160200191611758565b820191906000526020600020905b81548152906001019060200180831161173b57829003601f168201915b50505050509080600101805461176d90611ef7565b80601f016020809104026020016040519081016040528092919081815260200182805461179990611ef7565b80156117e65780601f106117bb576101008083540402835291602001916117e6565b820191906000526020600020905b8154815290600101906020018083116117c957829003601f168201915b5050505050908060020180546117fb90611ef7565b80601f016020809104026020016040519081016040528092919081815260200182805461182790611ef7565b80156118745780601f1061184957610100808354040283529160200191611874565b820191906000526020600020905b81548152906001019060200180831161185757829003601f168201915b5050505050905083565b82805461188a90611ef7565b90600052602060002090601f0160209004810192826118ac57600085556118f3565b82601f106118c557805160ff19168380011785556118f3565b828001600101855582156118f3579182015b828111156118f25782518255916020019190600101906118d7565b5b5090506119009190611904565b5090565b5b8082111561191d576000816000905550600101611905565b5090565b600061193461192f84611d96565b611d71565b90508281526020810184848401111561194c57600080fd5b611957848285611eb5565b509392505050565b60008135905061196e81612041565b92915050565b600082601f83011261198557600080fd5b8135611995848260208601611921565b91505092915050565b6000813590506119ad81612058565b92915050565b6000602082840312156119c557600080fd5b60006119d38482850161195f565b91505092915050565b600080604083850312156119ef57600080fd5b60006119fd8582860161195f565b9250506020611a0e8582860161195f565b9150509250929050565b600080600060608486031215611a2d57600080fd5b6000611a3b8682870161195f565b9350506020611a4c8682870161195f565b9250506040611a5d8682870161199e565b9150509250925092565b60008060408385031215611a7a57600080fd5b6000611a888582860161195f565b925050602083013567ffffffffffffffff811115611aa557600080fd5b611ab185828601611974565b9150509250929050565b60008060008060808587031215611ad157600080fd5b6000611adf8782880161195f565b945050602085013567ffffffffffffffff811115611afc57600080fd5b611b0887828801611974565b935050604085013567ffffffffffffffff811115611b2557600080fd5b611b3187828801611974565b925050606085013567ffffffffffffffff811115611b4e57600080fd5b611b5a87828801611974565b91505092959194509250565b60008060408385031215611b7957600080fd5b6000611b878582860161195f565b9250506020611b988582860161199e565b9150509250929050565b600060208284031215611bb457600080fd5b6000611bc28482850161199e565b91505092915050565b60008060408385031215611bde57600080fd5b6000611bec8582860161199e565b9250506020611bfd8582860161199e565b9150509250929050565b611c1081611e6d565b82525050565b611c1f81611e7f565b82525050565b6000611c3082611dc7565b611c3a8185611dd2565b9350611c4a818560208601611ec4565b611c5381612030565b840191505092915050565b611c6781611eab565b82525050565b6000602082019050611c826000830184611c07565b92915050565b6000602082019050611c9d6000830184611c16565b92915050565b60006020820190508181036000830152611cbd8184611c25565b905092915050565b60006060820190508181036000830152611cdf8186611c25565b90508181036020830152611cf38185611c25565b90508181036040830152611d078184611c25565b9050949350505050565b6000602082019050611d266000830184611c5e565b92915050565b6000608082019050611d416000830187611c5e565b611d4e6020830186611c07565b611d5b6040830185611c5e565b611d686060830184611c16565b95945050505050565b6000611d7b611d8c565b9050611d878282611f29565b919050565b6000604051905090565b600067ffffffffffffffff821115611db157611db0612001565b5b611dba82612030565b9050602081019050919050565b600081519050919050565b600082825260208201905092915050565b6000611dee82611eab565b9150611df983611eab565b9250827fffffffffffffffffffffffffffffffffffffffffffffffffffffffffffffffff03821115611e2e57611e2d611fa3565b5b828201905092915050565b6000611e4482611eab565b9150611e4f83611eab565b925082821015611e6257611e61611fa3565b5b828203905092915050565b6000611e7882611e8b565b9050919050565b60008115159050919050565b600073ffffffffffffffffffffffffffffffffffffffff82169050919050565b6000819050919050565b82818337600083830152505050565b60005b83811015611ee2578082015181840152602081019050611ec7565b83811115611ef1576000848401525b50505050565b60006002820490506001821680611f0f57607f821691505b60208210811415611f2357611f22611fd2565b5b50919050565b611f3282612030565b810181811067ffffffffffffffff82111715611f5157611f50612001565b5b80604052505050565b6000611f6582611eab565b91507fffffffffffffffffffffffffffffffffffffffffffffffffffffffffffffffff821415611f9857611f97611fa3565b5b600182019050919050565b7f4e487b7100000000000000000000000000000000000000000000000000000000600052601160045260246000fd5b7f4e487b7100000000000000000000000000000000000000000000000000000000600052602260045260246000fd5b7f4e487b7100000000000000000000000000000000000000000000000000000000600052604160045260246000fd5b6000601f19601f8301169050919050565b61204a81611e6d565b811461205557600080fd5b50565b61206181611eab565b811461206c57600080fd5b5056fea26469706673582212203d2266c000a3486a6f6938f9ddb1ab53334b6986f98f8dc9614a18ddbbe0d62664736f6c63430008010033",
  "immutableReferences": {},
  "source": "// SPDX-License-Identifier: GPL-3.0\r\n\r\npragma solidity ^0.8.1;\r\npragma abicoder v2;\r\npragma experimental SMTChecker;\r\n\r\ncontract oceanCoin {\r\n\r\n    event Transfer(address indexed from, address indexed to, uint256 value);\r\n    event Burn(address indexed from, uint256 value);\r\n    event Approval(address indexed owner, address indexed spender, uint256 value);\r\n    event NewBid(address indexed bidder, uint256 value);\r\n\r\n    // ERC-20 variables\r\n    string public name;\r\n    string public symbol;\r\n    uint public totalSupply;\r\n    address public burnAddr = address(0x000000000000000000000000000000000000dEaD);\r\n    mapping (address => uint) public balances;\r\n    mapping (address => mapping (address => uint)) public allowed;\r\n\r\n    // Volunteer network variables\r\n    address public owner;\r\n    address[] public organisations;\r\n    struct orgDet {\r\n        string name;\r\n        string location;\r\n        string email;\r\n    }\r\n    mapping (address => orgDet) public orgDetails;\r\n    address[] public volunteers;\r\n    struct volDet {\r\n        string name;\r\n    }\r\n    mapping (address => orgDet) public volDetails;\r\n\r\n    // Auction variables\r\n    struct auctDet {\r\n        uint bestBid;\r\n        address highestBidder;\r\n        uint expiration;\r\n        bool status;\r\n    }\r\n    mapping (uint => auctDet) public auctions;\r\n    uint public auctionCount;\r\n\r\n    // Fallback, Constructor\r\n    fallback () external {\r\n        revert();\r\n    }\r\n\r\n    constructor() {\r\n        // ERC-20\r\n        totalSupply = 100; //Equal to the kilos of trash in the ocean\r\n        balances[msg.sender] = 100;\r\n        name = \"Ocean Coin\";\r\n        symbol = \"OCN\";\r\n\r\n        // Volunteer network\r\n        owner = msg.sender;\r\n        auctionCount = 0;\r\n    }\r\n\r\n    // ERC-20 Functions\r\n    function transfer(address to, uint value) external returns (bool success) {\r\n        if (balances[msg.sender] >= value && value > 0) {\r\n            balances[msg.sender] -= value;\r\n            balances[to] += value;\r\n            emit Transfer(msg.sender, to, value);\r\n            return true;\r\n        }\r\n        else {\r\n            return false;\r\n        }\r\n    }\r\n\r\n    function transferFrom(address from, address to, uint value) external returns (bool success) {\r\n        if (balances[from] >= value && allowed[from][msg.sender] >= value && value > 0) {\r\n            balances[to] += value;\r\n            balances[from] -= value;\r\n            allowed[from][msg.sender] -= value;\r\n            emit Transfer(from, to, value);\r\n            return true;\r\n        }\r\n        else {\r\n            return false;\r\n        }\r\n    }\r\n\r\n    function burn(uint value) external returns (bool success) {\r\n        if (balances[msg.sender] >= value && value > 0) {\r\n            balances[msg.sender] -= value;\r\n            balances[burnAddr] += value;\r\n            emit Burn(msg.sender, value);\r\n            return true;\r\n        }\r\n        else {\r\n            return false;\r\n        }\r\n    }\r\n\r\n    function approve(address spender, uint value) external returns (bool success) {\r\n        allowed[msg.sender][spender] = value;\r\n        Approval(msg.sender, spender, value);\r\n        return true;\r\n    }\r\n\r\n    // Volunteer network\r\n    function addOrganisation(address addr, string memory orgName, string memory location, string memory email) external {\r\n        require(msg.sender == owner);\r\n        organisations.push(addr);\r\n        orgDetails[addr].name = orgName;\r\n        orgDetails[addr].location = location;\r\n        orgDetails[addr].email = email;\r\n    }\r\n\r\n    function addVolunteer(address addr, string memory name) external {\r\n        bool found = false;\r\n        if (owner == msg.sender) { found = true; }\r\n        for (uint i = 0; i < organisations.length; i++) {\r\n            if (organisations[i] == msg.sender) {\r\n                found = true;\r\n                break;\r\n            }\r\n        }\r\n        if (found) {\r\n            volunteers.push(addr);\r\n            volDetails[addr].name = name;\r\n        }\r\n    }\r\n\r\n    // Auction\r\n    function startAuction(uint duration) external {\r\n        auctions[auctionCount].highestBidder = address(0x0);\r\n        auctions[auctionCount].bestBid = 0;\r\n        auctions[auctionCount].expiration = block.number + duration;\r\n        auctions[auctionCount].status = true;\r\n        auctionCount++;\r\n    }\r\n\r\n    function bid(uint auctionId, uint value) external returns (uint best) {\r\n        require(auctionId <= auctionCount);\r\n        require(auctions[auctionId].status == true);\r\n        require(balances[msg.sender] >= value && value > 0);\r\n        require(value > auctions[auctionId].bestBid);\r\n        balances[msg.sender] -= value;\r\n        balances[auctions[auctionId].highestBidder] += auctions[auctionId].bestBid;\r\n        auctions[auctionId].highestBidder = msg.sender;\r\n        auctions[auctionId].bestBid = value;\r\n        return value;\r\n    }\r\n\r\n    function endAuction(uint auctionId) external {\r\n        require(auctionId <= auctionCount);\r\n        require(auctions[auctionId].expiration <= block.number);\r\n        auctions[auctionId].status = false;\r\n    }\r\n}\r\n",
  "sourcePath": "C:/Users/theod/OneDrive - University of Bristol/Uni/4 Forth Year/BoeingHackathon2021/SmartContract/truffle/contracts/oceanCoin.sol",
  "compiler": {
    "name": "solc",
    "version": "0.8.1+commit.df193b15.Emscripten.clang"
  },
  "schemaVersion": "3.3.3",
  "updatedAt": "2021-03-21T06:56:16.636Z",
  "devdoc": {
    "kind": "dev",
    "methods": {},
    "version": 1
  },
  "userdoc": {
    "kind": "user",
    "methods": {},
    "version": 1
  }
}