{
  "contractName": "oceanCoin",
  "abi": [
    {
      "inputs": [],
      "stateMutability": "nonpayable",
      "type": "constructor"
    },
    {
      "anonymous": false,
      "inputs": [
        {
          "indexed": true,
          "internalType": "address",
          "name": "owner",
          "type": "address"
        },
        {
          "indexed": true,
          "internalType": "address",
          "name": "spender",
          "type": "address"
        },
        {
          "indexed": false,
          "internalType": "uint256",
          "name": "value",
          "type": "uint256"
        }
      ],
      "name": "Approval",
      "type": "event"
    },
    {
      "anonymous": false,
      "inputs": [
        {
          "indexed": true,
          "internalType": "address",
          "name": "from",
          "type": "address"
        },
        {
          "indexed": false,
          "internalType": "uint256",
          "name": "value",
          "type": "uint256"
        }
      ],
      "name": "Burn",
      "type": "event"
    },
    {
      "anonymous": false,
      "inputs": [
        {
          "indexed": true,
          "internalType": "address",
          "name": "bidder",
          "type": "address"
        },
        {
          "indexed": false,
          "internalType": "uint256",
          "name": "value",
          "type": "uint256"
        }
      ],
      "name": "NewBid",
      "type": "event"
    },
    {
      "anonymous": false,
      "inputs": [
        {
          "indexed": true,
          "internalType": "address",
          "name": "from",
          "type": "address"
        },
        {
          "indexed": true,
          "internalType": "address",
          "name": "to",
          "type": "address"
        },
        {
          "indexed": false,
          "internalType": "uint256",
          "name": "value",
          "type": "uint256"
        }
      ],
      "name": "Transfer",
      "type": "event"
    },
    {
      "stateMutability": "nonpayable",
      "type": "fallback"
    },
    {
      "inputs": [
        {
          "internalType": "address",
          "name": "",
          "type": "address"
        },
        {
          "internalType": "address",
          "name": "",
          "type": "address"
        }
      ],
      "name": "allowed",
      "outputs": [
        {
          "internalType": "uint256",
          "name": "",
          "type": "uint256"
        }
      ],
      "stateMutability": "view",
      "type": "function"
    },
    {
      "inputs": [],
      "name": "auctionCount",
      "outputs": [
        {
          "internalType": "uint256",
          "name": "",
          "type": "uint256"
        }
      ],
      "stateMutability": "view",
      "type": "function"
    },
    {
      "inputs": [
        {
          "internalType": "uint256",
          "name": "",
          "type": "uint256"
        }
      ],
      "name": "auctions",
      "outputs": [
        {
          "internalType": "uint256",
          "name": "bestBid",
          "type": "uint256"
        },
        {
          "internalType": "address",
          "name": "highestBidder",
          "type": "address"
        },
        {
          "internalType": "uint256",
          "name": "expiration",
          "type": "uint256"
        },
        {
          "internalType": "bool",
          "name": "status",
          "type": "bool"
        }
      ],
      "stateMutability": "view",
      "type": "function"
    },
    {
      "inputs": [
        {
          "internalType": "address",
          "name": "",
          "type": "address"
        }
      ],
      "name": "balances",
      "outputs": [
        {
          "internalType": "uint256",
          "name": "",
          "type": "uint256"
        }
      ],
      "stateMutability": "view",
      "type": "function"
    },
    {
      "inputs": [],
      "name": "burnAddr",
      "outputs": [
        {
          "internalType": "address",
          "name": "",
          "type": "address"
        }
      ],
      "stateMutability": "view",
      "type": "function"
    },
    {
      "inputs": [],
      "name": "name",
      "outputs": [
        {
          "internalType": "string",
          "name": "",
          "type": "string"
        }
      ],
      "stateMutability": "view",
      "type": "function"
    },
    {
      "inputs": [
        {
          "internalType": "address",
          "name": "",
          "type": "address"
        }
      ],
      "name": "orgDetails",
      "outputs": [
        {
          "internalType": "string",
          "name": "name",
          "type": "string"
        },
        {
          "internalType": "string",
          "name": "location",
          "type": "string"
        },
        {
          "internalType": "string",
          "name": "email",
          "type": "string"
        }
      ],
      "stateMutability": "view",
      "type": "function"
    },
    {
      "inputs": [
        {
          "internalType": "uint256",
          "name": "",
          "type": "uint256"
        }
      ],
      "name": "organisations",
      "outputs": [
        {
          "internalType": "address",
          "name": "",
          "type": "address"
        }
      ],
      "stateMutability": "view",
      "type": "function"
    },
    {
      "inputs": [],
      "name": "owner",
      "outputs": [
        {
          "internalType": "address",
          "name": "",
          "type": "address"
        }
      ],
      "stateMutability": "view",
      "type": "function"
    },
    {
      "inputs": [],
      "name": "symbol",
      "outputs": [
        {
          "internalType": "string",
          "name": "",
          "type": "string"
        }
      ],
      "stateMutability": "view",
      "type": "function"
    },
    {
      "inputs": [],
      "name": "totalSupply",
      "outputs": [
        {
          "internalType": "uint256",
          "name": "",
          "type": "uint256"
        }
      ],
      "stateMutability": "view",
      "type": "function"
    },
    {
      "inputs": [
        {
          "internalType": "address",
          "name": "",
          "type": "address"
        }
      ],
      "name": "volDetails",
      "outputs": [
        {
          "internalType": "string",
          "name": "name",
          "type": "string"
        },
        {
          "internalType": "string",
          "name": "location",
          "type": "string"
        },
        {
          "internalType": "string",
          "name": "email",
          "type": "string"
        }
      ],
      "stateMutability": "view",
      "type": "function"
    },
    {
      "inputs": [
        {
          "internalType": "uint256",
          "name": "",
          "type": "uint256"
        }
      ],
      "name": "volunteers",
      "outputs": [
        {
          "internalType": "address",
          "name": "",
          "type": "address"
        }
      ],
      "stateMutability": "view",
      "type": "function"
    },
    {
      "inputs": [
        {
          "internalType": "address",
          "name": "to",
          "type": "address"
        },
        {
          "internalType": "uint256",
          "name": "value",
          "type": "uint256"
        }
      ],
      "name": "transfer",
      "outputs": [
        {
          "internalType": "bool",
          "name": "success",
          "type": "bool"
        }
      ],
      "stateMutability": "nonpayable",
      "type": "function"
    },
    {
      "inputs": [
        {
          "internalType": "address",
          "name": "from",
          "type": "address"
        },
        {
          "internalType": "address",
          "name": "to",
          "type": "address"
        },
        {
          "internalType": "uint256",
          "name": "value",
          "type": "uint256"
        }
      ],
      "name": "transferFrom",
      "outputs": [
        {
          "internalType": "bool",
          "name": "success",
          "type": "bool"
        }
      ],
      "stateMutability": "nonpayable",
      "type": "function"
    },
    {
      "inputs": [
        {
          "internalType": "uint256",
          "name": "value",
          "type": "uint256"
        }
      ],
      "name": "burn",
      "outputs": [
        {
          "internalType": "bool",
          "name": "success",
          "type": "bool"
        }
      ],
      "stateMutability": "nonpayable",
      "type": "function"
    },
    {
      "inputs": [
        {
          "internalType": "address",
          "name": "spender",
          "type": "address"
        },
        {
          "internalType": "uint256",
          "name": "value",
          "type": "uint256"
        }
      ],
      "name": "approve",
      "outputs": [
        {
          "internalType": "bool",
          "name": "success",
          "type": "bool"
        }
      ],
      "stateMutability": "nonpayable",
      "type": "function"
    },
    {
      "inputs": [
        {
          "internalType": "address",
          "name": "addr",
          "type": "address"
        },
        {
          "internalType": "string",
          "name": "orgName",
          "type": "string"
        },
        {
          "internalType": "string",
          "name": "location",
          "type": "string"
        },
        {
          "internalType": "string",
          "name": "email",
          "type": "string"
        }
      ],
      "name": "addOrganisation",
      "outputs": [],
      "stateMutability": "nonpayable",
      "type": "function"
    },
    {
      "inputs": [
        {
          "internalType": "address",
          "name": "addr",
          "type": "address"
        },
        {
          "internalType": "string",
          "name": "name",
          "type": "string"
        }
      ],
      "name": "addVolunteer",
      "outputs": [],
      "stateMutability": "nonpayable",
      "type": "function"
    },
    {
      "inputs": [
        {
          "internalType": "uint256",
          "name": "duration",
          "type": "uint256"
        }
      ],
      "name": "startAuction",
      "outputs": [],
      "stateMutability": "nonpayable",
      "type": "function"
    },
    {
      "inputs": [
        {
          "internalType": "uint256",
          "name": "auctionId",
          "type": "uint256"
        },
        {
          "internalType": "uint256",
          "name": "value",
          "type": "uint256"
        }
      ],
      "name": "bid",
      "outputs": [
        {
          "internalType": "uint256",
          "name": "best",
          "type": "uint256"
        }
      ],
      "stateMutability": "nonpayable",
      "type": "function"
    },
    {
      "inputs": [
        {
          "internalType": "uint256",
          "name": "auctionId",
          "type": "uint256"
        }
      ],
      "name": "endAuction",
      "outputs": [],
      "stateMutability": "nonpayable",
      "type": "function"
    }
  ],
  "bytecode": "0x608060405261dead600360006101000a81548173ffffffffffffffffffffffffffffffffffffffff021916908373ffffffffffffffffffffffffffffffffffffffff1602179055503480156200005457600080fd5b5060646002819055506064600460003373ffffffffffffffffffffffffffffffffffffffff1673ffffffffffffffffffffffffffffffffffffffff168152602001908152602001600020819055506040518060400160405280600a81526020017f4f6365616e20436f696e0000000000000000000000000000000000000000000081525060009080519060200190620000ef9291906200018d565b506040518060400160405280600381526020017f4f434e0000000000000000000000000000000000000000000000000000000000815250600190805190602001906200013d9291906200018d565b5033600660006101000a81548173ffffffffffffffffffffffffffffffffffffffff021916908373ffffffffffffffffffffffffffffffffffffffff1602179055506000600c81905550620002a2565b8280546200019b906200023d565b90600052602060002090601f016020900481019282620001bf57600085556200020b565b82601f10620001da57805160ff19168380011785556200020b565b828001600101855582156200020b579182015b828111156200020a578251825591602001919060010190620001ed565b5b5090506200021a91906200021e565b5090565b5b80821115620002395760008160009055506001016200021f565b5090565b600060028204905060018216806200025657607f821691505b602082108114156200026d576200026c62000273565b5b50919050565b7f4e487b7100000000000000000000000000000000000000000000000000000000600052602260045260246000fd5b61204980620002b26000396000f3fe608060405234801561001057600080fd5b50600436106101465760003560e01c806342966c68116100b85780638da5cb5b1161007c5780638da5cb5b146103df57806395d89b41146103fd578063a9059cbb1461041b578063b9a2de3a1461044b578063d246d41114610467578063efdffbcc1461048557610147565b806342966c6814610300578063571a26a014610330578063598647f8146103635780635c658165146103935780637f3436ef146103c357610147565b806321e477a61161010a57806321e477a6146101f057806323b872dd14610222578063246f8c441461025257806327e235e3146102825780632ad71573146102b25780633dbf8cc5146102d057610147565b8063065de74c1461014c57806306fdde0314610168578063095ea7b31461018657806318160ddd146101b65780631ffe69a5146101d457610147565b5b600080fd5b61016660048036038101906101619190611b46565b6104b7565b005b6101706105a1565b60405161017d9190611c47565b60405180910390f35b6101a0600480360381019061019b9190611b0a565b61062f565b6040516101ad9190611c2c565b60405180910390f35b6101be610721565b6040516101cb9190611cb5565b60405180910390f35b6101ee60048036038101906101e99190611a0b565b610727565b005b61020a60048036038101906102059190611957565b6108b3565b60405161021993929190611c69565b60405180910390f35b61023c600480360381019061023791906119bc565b610a75565b6040516102499190611c2c565b60405180910390f35b61026c60048036038101906102679190611b46565b610d0c565b6040516102799190611c11565b60405180910390f35b61029c60048036038101906102979190611957565b610d4b565b6040516102a99190611cb5565b60405180910390f35b6102ba610d63565b6040516102c79190611cb5565b60405180910390f35b6102ea60048036038101906102e59190611b46565b610d69565b6040516102f79190611c11565b60405180910390f35b61031a60048036038101906103159190611b46565b610da8565b6040516103279190611c2c565b60405180910390f35b61034a60048036038101906103459190611b46565b610f2d565b60405161035a9493929190611cd0565b60405180910390f35b61037d60048036038101906103789190611b6f565b610f8a565b60405161038a9190611cb5565b60405180910390f35b6103ad60048036038101906103a89190611980565b6111ba565b6040516103ba9190611cb5565b60405180910390f35b6103dd60048036038101906103d89190611a5f565b6111df565b005b6103e76113a7565b6040516103f49190611c11565b60405180910390f35b6104056113cd565b6040516104129190611c47565b60405180910390f35b61043560048036038101906104309190611b0a565b61145b565b6040516104429190611c2c565b60405180910390f35b61046560048036038101906104609190611b46565b6115d6565b005b61046f61163a565b60405161047c9190611c11565b60405180910390f35b61049f600480360381019061049a9190611957565b611660565b6040516104ae93929190611c69565b60405180910390f35b6000600b6000600c54815260200190815260200160002060010160006101000a81548173ffffffffffffffffffffffffffffffffffffffff021916908373ffffffffffffffffffffffffffffffffffffffff1602179055506000600b6000600c5481526020019081526020016000206000018190555080436105399190611d87565b600b6000600c548152602001908152602001600020600201819055506001600b6000600c54815260200190815260200160002060030160006101000a81548160ff021916908315150217905550600c600081548092919061059990611efe565b919050555050565b600080546105ae90611e9b565b80601f01602080910402602001604051908101604052809291908181526020018280546105da90611e9b565b80156106275780601f106105fc57610100808354040283529160200191610627565b820191906000526020600020905b81548152906001019060200180831161060a57829003601f168201915b505050505081565b600081600560003373ffffffffffffffffffffffffffffffffffffffff1673ffffffffffffffffffffffffffffffffffffffff16815260200190815260200160002060008573ffffffffffffffffffffffffffffffffffffffff1673ffffffffffffffffffffffffffffffffffffffff168152602001908152602001600020819055508273ffffffffffffffffffffffffffffffffffffffff163373ffffffffffffffffffffffffffffffffffffffff167f8c5be1e5ebec7d5bd14f71427d1e84f3dd0314c0f7b2291e5b200ac8c7c3b9258460405161070f9190611cb5565b60405180910390a36001905092915050565b60025481565b6000805b6007805490508110156107ec573373ffffffffffffffffffffffffffffffffffffffff1660078281548110610789577f4e487b7100000000000000000000000000000000000000000000000000000000600052603260045260246000fd5b9060005260206000200160009054906101000a900473ffffffffffffffffffffffffffffffffffffffff1673ffffffffffffffffffffffffffffffffffffffff1614156107d957600191506107ec565b80806107e490611efe565b91505061072b565b5080156108ae576009839080600181540180825580915050600190039060005260206000200160009091909190916101000a81548173ffffffffffffffffffffffffffffffffffffffff021916908373ffffffffffffffffffffffffffffffffffffffff16021790555081600a60008573ffffffffffffffffffffffffffffffffffffffff1673ffffffffffffffffffffffffffffffffffffffff16815260200190815260200160002060000190805190602001906108ac929190611822565b505b505050565b600a6020528060005260406000206000915090508060000180546108d690611e9b565b80601f016020809104026020016040519081016040528092919081815260200182805461090290611e9b565b801561094f5780601f106109245761010080835404028352916020019161094f565b820191906000526020600020905b81548152906001019060200180831161093257829003601f168201915b50505050509080600101805461096490611e9b565b80601f016020809104026020016040519081016040528092919081815260200182805461099090611e9b565b80156109dd5780601f106109b2576101008083540402835291602001916109dd565b820191906000526020600020905b8154815290600101906020018083116109c057829003601f168201915b5050505050908060020180546109f290611e9b565b80601f0160208091040260200160405190810160405280929190818152602001828054610a1e90611e9b565b8015610a6b5780601f10610a4057610100808354040283529160200191610a6b565b820191906000526020600020905b815481529060010190602001808311610a4e57829003601f168201915b5050505050905083565b600081600460008673ffffffffffffffffffffffffffffffffffffffff1673ffffffffffffffffffffffffffffffffffffffff1681526020019081526020016000205410158015610b42575081600560008673ffffffffffffffffffffffffffffffffffffffff1673ffffffffffffffffffffffffffffffffffffffff16815260200190815260200160002060003373ffffffffffffffffffffffffffffffffffffffff1673ffffffffffffffffffffffffffffffffffffffff1681526020019081526020016000205410155b8015610b4e5750600082115b15610d005781600460008573ffffffffffffffffffffffffffffffffffffffff1673ffffffffffffffffffffffffffffffffffffffff1681526020019081526020016000206000828254610ba29190611d87565b9250508190555081600460008673ffffffffffffffffffffffffffffffffffffffff1673ffffffffffffffffffffffffffffffffffffffff1681526020019081526020016000206000828254610bf89190611ddd565b9250508190555081600560008673ffffffffffffffffffffffffffffffffffffffff1673ffffffffffffffffffffffffffffffffffffffff16815260200190815260200160002060003373ffffffffffffffffffffffffffffffffffffffff1673ffffffffffffffffffffffffffffffffffffffff1681526020019081526020016000206000828254610c8b9190611ddd565b925050819055508273ffffffffffffffffffffffffffffffffffffffff168473ffffffffffffffffffffffffffffffffffffffff167fddf252ad1be2c89b69c2b068fc378daa952ba7f163c4a11628f55a4df523b3ef84604051610cef9190611cb5565b60405180910390a360019050610d05565b600090505b9392505050565b60078181548110610d1c57600080fd5b906000526020600020016000915054906101000a900473ffffffffffffffffffffffffffffffffffffffff1681565b60046020528060005260406000206000915090505481565b600c5481565b60098181548110610d7957600080fd5b906000526020600020016000915054906101000a900473ffffffffffffffffffffffffffffffffffffffff1681565b600081600460003373ffffffffffffffffffffffffffffffffffffffff1673ffffffffffffffffffffffffffffffffffffffff1681526020019081526020016000205410158015610df95750600082115b15610f235781600460003373ffffffffffffffffffffffffffffffffffffffff1673ffffffffffffffffffffffffffffffffffffffff1681526020019081526020016000206000828254610e4d9190611ddd565b925050819055508160046000600360009054906101000a900473ffffffffffffffffffffffffffffffffffffffff1673ffffffffffffffffffffffffffffffffffffffff1673ffffffffffffffffffffffffffffffffffffffff1681526020019081526020016000206000828254610ec59190611d87565b925050819055503373ffffffffffffffffffffffffffffffffffffffff167fcc16f5dbb4873280815c1ee09dbd06736cffcc184412cf7a71a0fdb75d397ca583604051610f129190611cb5565b60405180910390a260019050610f28565b600090505b919050565b600b6020528060005260406000206000915090508060000154908060010160009054906101000a900473ffffffffffffffffffffffffffffffffffffffff16908060020154908060030160009054906101000a900460ff16905084565b6000600c54831115610f9b57600080fd5b60011515600b600085815260200190815260200160002060030160009054906101000a900460ff16151514610fcf57600080fd5b81600460003373ffffffffffffffffffffffffffffffffffffffff1673ffffffffffffffffffffffffffffffffffffffff168152602001908152602001600020541015801561101e5750600082115b61102757600080fd5b600b600084815260200190815260200160002060000154821161104957600080fd5b81600460003373ffffffffffffffffffffffffffffffffffffffff1673ffffffffffffffffffffffffffffffffffffffff16815260200190815260200160002060008282546110989190611ddd565b92505081905550600b60008481526020019081526020016000206000015460046000600b600087815260200190815260200160002060010160009054906101000a900473ffffffffffffffffffffffffffffffffffffffff1673ffffffffffffffffffffffffffffffffffffffff1673ffffffffffffffffffffffffffffffffffffffff168152602001908152602001600020600082825461113a9190611d87565b9250508190555033600b600085815260200190815260200160002060010160006101000a81548173ffffffffffffffffffffffffffffffffffffffff021916908373ffffffffffffffffffffffffffffffffffffffff16021790555081600b60008581526020019081526020016000206000018190555081905092915050565b6005602052816000526040600020602052806000526040600020600091509150505481565b600660009054906101000a900473ffffffffffffffffffffffffffffffffffffffff1673ffffffffffffffffffffffffffffffffffffffff163373ffffffffffffffffffffffffffffffffffffffff161461123957600080fd5b6007849080600181540180825580915050600190039060005260206000200160009091909190916101000a81548173ffffffffffffffffffffffffffffffffffffffff021916908373ffffffffffffffffffffffffffffffffffffffff16021790555082600860008673ffffffffffffffffffffffffffffffffffffffff1673ffffffffffffffffffffffffffffffffffffffff16815260200190815260200160002060000190805190602001906112f2929190611822565b5081600860008673ffffffffffffffffffffffffffffffffffffffff1673ffffffffffffffffffffffffffffffffffffffff1681526020019081526020016000206001019080519060200190611349929190611822565b5080600860008673ffffffffffffffffffffffffffffffffffffffff1673ffffffffffffffffffffffffffffffffffffffff16815260200190815260200160002060020190805190602001906113a0929190611822565b5050505050565b600660009054906101000a900473ffffffffffffffffffffffffffffffffffffffff1681565b600180546113da90611e9b565b80601f016020809104026020016040519081016040528092919081815260200182805461140690611e9b565b80156114535780601f1061142857610100808354040283529160200191611453565b820191906000526020600020905b81548152906001019060200180831161143657829003601f168201915b505050505081565b600081600460003373ffffffffffffffffffffffffffffffffffffffff1673ffffffffffffffffffffffffffffffffffffffff16815260200190815260200160002054101580156114ac5750600082115b156115cb5781600460003373ffffffffffffffffffffffffffffffffffffffff1673ffffffffffffffffffffffffffffffffffffffff16815260200190815260200160002060008282546115009190611ddd565b9250508190555081600460008573ffffffffffffffffffffffffffffffffffffffff1673ffffffffffffffffffffffffffffffffffffffff16815260200190815260200160002060008282546115569190611d87565b925050819055508273ffffffffffffffffffffffffffffffffffffffff163373ffffffffffffffffffffffffffffffffffffffff167fddf252ad1be2c89b69c2b068fc378daa952ba7f163c4a11628f55a4df523b3ef846040516115ba9190611cb5565b60405180910390a3600190506115d0565b600090505b92915050565b600c548111156115e557600080fd5b43600b600083815260200190815260200160002060020154111561160857600080fd5b6000600b600083815260200190815260200160002060030160006101000a81548160ff02191690831515021790555050565b600360009054906101000a900473ffffffffffffffffffffffffffffffffffffffff1681565b600860205280600052604060002060009150905080600001805461168390611e9b565b80601f01602080910402602001604051908101604052809291908181526020018280546116af90611e9b565b80156116fc5780601f106116d1576101008083540402835291602001916116fc565b820191906000526020600020905b8154815290600101906020018083116116df57829003601f168201915b50505050509080600101805461171190611e9b565b80601f016020809104026020016040519081016040528092919081815260200182805461173d90611e9b565b801561178a5780601f1061175f5761010080835404028352916020019161178a565b820191906000526020600020905b81548152906001019060200180831161176d57829003601f168201915b50505050509080600201805461179f90611e9b565b80601f01602080910402602001604051908101604052809291908181526020018280546117cb90611e9b565b80156118185780601f106117ed57610100808354040283529160200191611818565b820191906000526020600020905b8154815290600101906020018083116117fb57829003601f168201915b5050505050905083565b82805461182e90611e9b565b90600052602060002090601f0160209004810192826118505760008555611897565b82601f1061186957805160ff1916838001178555611897565b82800160010185558215611897579182015b8281111561189657825182559160200191906001019061187b565b5b5090506118a491906118a8565b5090565b5b808211156118c15760008160009055506001016118a9565b5090565b60006118d86118d384611d3a565b611d15565b9050828152602081018484840111156118f057600080fd5b6118fb848285611e59565b509392505050565b60008135905061191281611fe5565b92915050565b600082601f83011261192957600080fd5b81356119398482602086016118c5565b91505092915050565b60008135905061195181611ffc565b92915050565b60006020828403121561196957600080fd5b600061197784828501611903565b91505092915050565b6000806040838503121561199357600080fd5b60006119a185828601611903565b92505060206119b285828601611903565b9150509250929050565b6000806000606084860312156119d157600080fd5b60006119df86828701611903565b93505060206119f086828701611903565b9250506040611a0186828701611942565b9150509250925092565b60008060408385031215611a1e57600080fd5b6000611a2c85828601611903565b925050602083013567ffffffffffffffff811115611a4957600080fd5b611a5585828601611918565b9150509250929050565b60008060008060808587031215611a7557600080fd5b6000611a8387828801611903565b945050602085013567ffffffffffffffff811115611aa057600080fd5b611aac87828801611918565b935050604085013567ffffffffffffffff811115611ac957600080fd5b611ad587828801611918565b925050606085013567ffffffffffffffff811115611af257600080fd5b611afe87828801611918565b91505092959194509250565b60008060408385031215611b1d57600080fd5b6000611b2b85828601611903565b9250506020611b3c85828601611942565b9150509250929050565b600060208284031215611b5857600080fd5b6000611b6684828501611942565b91505092915050565b60008060408385031215611b8257600080fd5b6000611b9085828601611942565b9250506020611ba185828601611942565b9150509250929050565b611bb481611e11565b82525050565b611bc381611e23565b82525050565b6000611bd482611d6b565b611bde8185611d76565b9350611bee818560208601611e68565b611bf781611fd4565b840191505092915050565b611c0b81611e4f565b82525050565b6000602082019050611c266000830184611bab565b92915050565b6000602082019050611c416000830184611bba565b92915050565b60006020820190508181036000830152611c618184611bc9565b905092915050565b60006060820190508181036000830152611c838186611bc9565b90508181036020830152611c978185611bc9565b90508181036040830152611cab8184611bc9565b9050949350505050565b6000602082019050611cca6000830184611c02565b92915050565b6000608082019050611ce56000830187611c02565b611cf26020830186611bab565b611cff6040830185611c02565b611d0c6060830184611bba565b95945050505050565b6000611d1f611d30565b9050611d2b8282611ecd565b919050565b6000604051905090565b600067ffffffffffffffff821115611d5557611d54611fa5565b5b611d5e82611fd4565b9050602081019050919050565b600081519050919050565b600082825260208201905092915050565b6000611d9282611e4f565b9150611d9d83611e4f565b9250827fffffffffffffffffffffffffffffffffffffffffffffffffffffffffffffffff03821115611dd257611dd1611f47565b5b828201905092915050565b6000611de882611e4f565b9150611df383611e4f565b925082821015611e0657611e05611f47565b5b828203905092915050565b6000611e1c82611e2f565b9050919050565b60008115159050919050565b600073ffffffffffffffffffffffffffffffffffffffff82169050919050565b6000819050919050565b82818337600083830152505050565b60005b83811015611e86578082015181840152602081019050611e6b565b83811115611e95576000848401525b50505050565b60006002820490506001821680611eb357607f821691505b60208210811415611ec757611ec6611f76565b5b50919050565b611ed682611fd4565b810181811067ffffffffffffffff82111715611ef557611ef4611fa5565b5b80604052505050565b6000611f0982611e4f565b91507fffffffffffffffffffffffffffffffffffffffffffffffffffffffffffffffff821415611f3c57611f3b611f47565b5b600182019050919050565b7f4e487b7100000000000000000000000000000000000000000000000000000000600052601160045260246000fd5b7f4e487b7100000000000000000000000000000000000000000000000000000000600052602260045260246000fd5b7f4e487b7100000000000000000000000000000000000000000000000000000000600052604160045260246000fd5b6000601f19601f8301169050919050565b611fee81611e11565b8114611ff957600080fd5b50565b61200581611e4f565b811461201057600080fd5b5056fea264697066735822122013093a818910c66e8a14b53521538530dc7e0674f7063461e3ec4179fa99020b64736f6c63430008010033",
  "immutableReferences": {},
  "source": "// SPDX-License-Identifier: GPL-3.0\r\n\r\npragma solidity ^0.8.1;\r\npragma abicoder v2;\r\npragma experimental SMTChecker;\r\n\r\ncontract oceanCoin {\r\n\r\n    event Transfer(address indexed from, address indexed to, uint256 value);\r\n    event Burn(address indexed from, uint256 value);\r\n    event Approval(address indexed owner, address indexed spender, uint256 value);\r\n    event NewBid(address indexed bidder, uint256 value);\r\n\r\n    // ERC-20 variables\r\n    string public name;\r\n    string public symbol;\r\n    uint public totalSupply;\r\n    address public burnAddr = address(0x000000000000000000000000000000000000dEaD);\r\n    mapping (address => uint) public balances;\r\n    mapping (address => mapping (address => uint)) public allowed;\r\n\r\n    // Volunteer network variables\r\n    address public owner;\r\n    address[] public organisations;\r\n    struct orgDet {\r\n        string name;\r\n        string location;\r\n        string email;\r\n    }\r\n    mapping (address => orgDet) public orgDetails;\r\n    address[] public volunteers;\r\n    struct volDet {\r\n        string name;\r\n    }\r\n    mapping (address => orgDet) public volDetails;\r\n\r\n    // Auction variables\r\n    struct auctDet {\r\n        uint bestBid;\r\n        address highestBidder;\r\n        uint expiration;\r\n        bool status;\r\n    }\r\n    mapping (uint => auctDet) public auctions;\r\n    uint public auctionCount;\r\n\r\n    // Fallback, Constructor\r\n    fallback () external {\r\n        revert();\r\n    }\r\n\r\n    constructor() {\r\n        // ERC-20\r\n        totalSupply = 100; //Equal to the kilos of trash in the ocean\r\n        balances[msg.sender] = 100;\r\n        name = \"Ocean Coin\";\r\n        symbol = \"OCN\";\r\n\r\n        // Volunteer network\r\n        owner = msg.sender;\r\n        auctionCount = 0;\r\n    }\r\n\r\n    // ERC-20 Functions\r\n    function transfer(address to, uint value) external returns (bool success) {\r\n        if (balances[msg.sender] >= value && value > 0) {\r\n            balances[msg.sender] -= value;\r\n            balances[to] += value;\r\n            emit Transfer(msg.sender, to, value);\r\n            return true;\r\n        }\r\n        else {\r\n            return false;\r\n        }\r\n    }\r\n\r\n    function transferFrom(address from, address to, uint value) external returns (bool success) {\r\n        if (balances[from] >= value && allowed[from][msg.sender] >= value && value > 0) {\r\n            balances[to] += value;\r\n            balances[from] -= value;\r\n            allowed[from][msg.sender] -= value;\r\n            emit Transfer(from, to, value);\r\n            return true;\r\n        }\r\n        else {\r\n            return false;\r\n        }\r\n    }\r\n\r\n    function burn(uint value) external returns (bool success) {\r\n        if (balances[msg.sender] >= value && value > 0) {\r\n            balances[msg.sender] -= value;\r\n            balances[burnAddr] += value;\r\n            emit Burn(msg.sender, value);\r\n            return true;\r\n        }\r\n        else {\r\n            return false;\r\n        }\r\n    }\r\n\r\n    function approve(address spender, uint value) external returns (bool success) {\r\n        allowed[msg.sender][spender] = value;\r\n        Approval(msg.sender, spender, value);\r\n        return true;\r\n    }\r\n\r\n    // Volunteer network\r\n    function addOrganisation(address addr, string memory orgName, string memory location, string memory email) external {\r\n        require(msg.sender == owner);\r\n        organisations.push(addr);\r\n        orgDetails[addr].name = orgName;\r\n        orgDetails[addr].location = location;\r\n        orgDetails[addr].email = email;\r\n    }\r\n\r\n    function addVolunteer(address addr, string memory name) external {\r\n        bool found = false;\r\n        for (uint i = 0; i < organisations.length; i++) {\r\n            if (organisations[i] == msg.sender) {\r\n                found = true;\r\n                break;\r\n            }\r\n        }\r\n        if (found) {\r\n            volunteers.push(addr);\r\n            volDetails[addr].name = name;\r\n        }\r\n    }\r\n\r\n    // Auction\r\n    function startAuction(uint duration) external {\r\n        auctions[auctionCount].highestBidder = address(0x0);\r\n        auctions[auctionCount].bestBid = 0;\r\n        auctions[auctionCount].expiration = block.number + duration;\r\n        auctions[auctionCount].status = true;\r\n        auctionCount++;\r\n    }\r\n\r\n    function bid(uint auctionId, uint value) external returns (uint best) {\r\n        require(auctionId <= auctionCount);\r\n        require(auctions[auctionId].status == true);\r\n        require(balances[msg.sender] >= value && value > 0);\r\n        require(value > auctions[auctionId].bestBid);\r\n        balances[msg.sender] -= value;\r\n        balances[auctions[auctionId].highestBidder] += auctions[auctionId].bestBid;\r\n        auctions[auctionId].highestBidder = msg.sender;\r\n        auctions[auctionId].bestBid = value;\r\n        return value;\r\n    }\r\n\r\n    function endAuction(uint auctionId) external {\r\n        require(auctionId <= auctionCount);\r\n        require(auctions[auctionId].expiration <= block.number);\r\n        auctions[auctionId].status = false;\r\n    }\r\n}\r\n",
  "sourcePath": "C:/Users/theod/OneDrive - University of Bristol/Uni/4 Forth Year/BoeingHackathon2021/smart contract/truffle/contracts/oceanCoin.sol",
  "compiler": {
    "name": "solc",
    "version": "0.8.1+commit.df193b15.Emscripten.clang"
  },
  "schemaVersion": "3.3.3",
  "updatedAt": "2021-03-20T23:31:33.209Z",
  "devdoc": {
    "kind": "dev",
    "methods": {},
    "version": 1
  },
  "userdoc": {
    "kind": "user",
    "methods": {},
    "version": 1
  }
}